:100000000C94BF000C94E7000C94E7000C94E700FC
:100010000C94E7000C94E7000C94E7000C94E700C4
:100020000C94E7000C94E7000C94FA230C947722CC
:100030000C94E7000C94E7000C94E7000C94E700A4
:100040000C94E7000C94E7000C94E7000C94E70094
:100050000C94E7000C94E7000C94E7000C94B22198
:100060000C94E7000C94E7000C94E7000C94E70074
:100070000C94E7000C94E7000C94E7000C94E70064
:100080000C94E7000C94E7000C94E7000C94E70054
:100090000C94E7000C94E7000C94E7000C94E70044
:1000A0000C94E7000C94E7000C94E70000010000BA
:1000B000E0001200020000F20043000300003501DE
:1000C0000401030904390110020309044B011E0352
:1000D0000309046B010C0001C10201803601813665
:1000E0001201000202000020501DAB60000101025D
:1000F000030109024300020100C0320904000001AB
:10010000020201000524001001052401000104245D
:1001100002060524060001070582030800400904C1
:100120000100020A00000007050302400000070565
:100130008402400000040309041003470065006EB8
:1001400000650072006900630000001E0341005654
:10015000005200200055005300420020005300656B
:10016000007200690061006C0000000C0332003373
:1001700000340035003600000000F102D5261124BD
:100180001FBECFEFDAE0DEBFCDBF11E0A0E0B1E0EF
:10019000E6EAFFE402C005900D92A23BB107D9F751
:1001A00011E0A2EBB1E001C01D92A83FB107E1F759
:1001B00011E0CEE7D1E004C02297FE010E94CD27D6
:1001C000CA37D107C9F70E9475240C94D1270C9423
:1001D0000000FB01DC0104C08D910190801921F425
:1001E00041505040C8F7881B990B0895DC0101C0AD
:1001F0006D9341505040E0F70895CF92DF92EF9217
:10020000FF920F931F93CF93DF938C017B01121604
:10021000130624F06A01C0E0D0E002C06901EA01DF
:10022000D801ED91FC910480F581E02DC80109957C
:10023000CE01880F991F8C0F9D1F8E0D9F1DF801F9
:1002400093838283C586D686C801DF91CF911F91A3
:100250000F91FF90EF90DF90CF900895E091B5015E
:10026000F091B60104C064870480F581E02D3097D9
:10027000D1F70895EF92FF920F931F93CF93DF93DF
:10028000EC018091BD019091BE01FC013196F0938B
:10029000BE01E093BD01861797070CF43FC00FB66F
:1002A000F8942091DA013091DB014091DC0150910A
:1002B000DD010FBE88EE93E0E89FB001E99F700D6D
:1002C000F89F700D1124882777FD8095982FE09076
:1002D000B901F090BA010091BB011091BC012E1937
:1002E0003F09400B510B0E948E273A8329831092BD
:1002F000BE011092BD010FB6F8948091DA01909181
:10030000DB01A091DC01B091DD010FBE8093B9014A
:100310009093BA01A093BB01B093BC01DF91CF9140
:100320001F910F91FF90EF9008952F923F924F925F
:100330005F926F927F928F929F92AF92BF92CF9275
:10034000DF92EF92FF920F931F93DF93CF93CDB77E
:10035000DEB729970FB6F894DEBF0FBECDBF1C01E4
:100360007E836D834F830091B5011091B601842E79
:100370009924AA24BB24CE010496998788875FC05C
:10038000D8011C96BC91BC83F10181819281843695
:10039000910518F4D8011C961C92D801ED91FC919E
:1003A0001197408051801D966D907C901E97198208
:1003B0001A821B82BF81BB2381F168017E010894F0
:1003C000E11CF11CF601268161852223D9F0662308
:1003D000C9F070E080E090E06F5F7F4F8F4F9F4FDC
:1003E00030E040E050E02F5F3F4F4F4F5F4F0E94A3
:1003F0004827A50194010E944827BC018827992716
:10040000D7016C930894C11CD11C0894E11CF11C09
:10041000E885F985EE16FF06A9F6C8016D817E8193
:10042000A3019E012F5F3F4FF2010995EC81D80196
:100430001C96EC931C9714960D911C911597011521
:10044000110509F09DCFC10169E170E00E943A01F8
:1004500029960FB6F894DEBF0FBECDBFCF91DF91C6
:100460001F910F91FF90EF90DF90CF90BF90AF90D2
:100470009F908F907F906F905F904F903F902F90C4
:1004800008952F923F924F925F926F927F928F9238
:100490009F92AF92BF92CF92DF92EF92FF920F9313
:1004A0001F93DF93CF93CDB7DEB729970FB6F8949C
:1004B000DEBF0FBECDBF1C016F830091B50110914F
:1004C000B601862E9924AA24BB24CE0104969987CE
:1004D000888765C0D8011C96BC91BE83F1018181DB
:1004E00092818436910518F4D8011C961C92D8018B
:1004F000ED91FC911197828193819D838C8312965B
:100500006D907C9013971D964D905C901E9719826C
:100510001A821B829F81992399F168017E010894B8
:10052000E11CF11CD60116962C91169719966C9128
:100530002223D9F06623C9F070E080E090E06F5F7D
:100540007F4F8F4F9F4F30E040E050E02F5F3F4F95
:100550004F4F5F4F0E944827A50194010E944827F2
:10056000BC0188279927F70160830894C11CD11C1E
:100570000894E11CF11C88859985E816F90691F626
:10058000C801B301A2019E012F5F3F4FAC81BD8125
:10059000FD0109958E81F80184870481158101157B
:1005A000110509F097CFC10169E170E00E943A019D
:1005B00029960FB6F894DEBF0FBECDBFCF91DF9165
:1005C0001F910F91FF90EF90DF90CF90BF90AF9071
:1005D0009F908F907F906F905F904F903F902F9063
:1005E00008958FEF8093B2011092B4011092B3017D
:1005F0000895AF92BF92CF92DF92EF92FF920F9346
:100600001F93CF93DF93EC015A016B010FB6F8945F
:10061000E090DA01F090DB010091DC011091DD0146
:100620000FBE0AC061E070E080E090E00E94F2211D
:10063000CE0168810E9441020FB6F8948091DA01E0
:100640009091DB01A091DC01B091DD010FBE8E190C
:100650009F09A00BB10B8A159B05AC05BD0510F3D6
:10066000DF91CF911F910F91FF90EF90DF90CF908E
:10067000BF90AF900895CF93DF93C091B501D09113
:10068000B60113C02A813B812115310559F08D85B2
:100690009E85AC01440F551F480F591FC90160E0EA
:1006A0000E94AE200C80DD81C02D209759F7DF918C
:1006B000CF9108950F931F93DF93CF9300D00F92A4
:1006C000CDB7DEB78C01662349F019821A821B82EE
:1006D000BE016F5F7F4F40E00E949501C8010E94FC
:1006E0003B030F900F900F90CF91DF911F910F91CF
:1006F0000895FC0182E291E091838083138212824B
:100700008FEF86838783808781878287838781E0D5
:10071000848716861586158214828091B501909182
:10072000B601892B21F4F093B601E093B501A091B5
:10073000B701B091B801109721F01596FC93EE9394
:100740001497F093B801E093B70108959CB59C7F8E
:100750009CBD282F30E040E050E060E170E080E098
:1007600090E00E94B02727FF04C08CB582608CBD4A
:100770000CC0203418F08CB5826009C0203218F00B
:100780008CB582600AC0203120F08CB581608CBDB0
:1007900008C0283020F08CB581608CBD05C02430A5
:1007A00018F08DB58E7F02C08DB581608DBD089526
:1007B000229A0895229A0895229A0895229A0895D5
:1007C000229A0895DF93CF9300D000D000D0CDB708
:1007D000DEB7DC01AB01ED91FC910190F081E02DE1
:1007E00019821A821B821C821D821E82BE016F5FCB
:1007F0007F4F9E012C5F3F4F099526960FB6F894C8
:10080000DEBF0FBECDBFCF91DF910895DF93CF93B1
:1008100000D000D000D0CDB7DEB7DC01AB01ED9148
:10082000FC910190F081E02D19821A821B821C82BA
:100830001D821E82BE016F5F7F4F9E012C5F3F4F66
:10084000099526960FB6F894DEBF0FBECDBFCF91A7
:10085000DF9108950F931F93DF93CF930F92CDB73E
:10086000DEB78C01229A219A209A2898FC01A7854C
:10087000B089109741F0ED91FC9111970280F381BE
:10088000E02DCD0109958CB580658CBD8CB58C7F34
:100890008CBD8DB589838EB5898389818CB5816046
:1008A0008CBD8DB58E7F8DBD1EBC1092D2010E9475
:1008B0000B22F801738B628B0F90CF91DF911F9108
:1008C0000F9108950F931F93CF93DF93EC018B014A
:1008D0002A893B890E940B22621B730B685E73405E
:1008E000C8F3AF85B889109741F0ED91FC9111974D
:1008F0000190F081E02DCD010995C801880F991F65
:10090000800F911F2091D20107C0222319F00DB44E
:1009100007FEFDCF1EBC21E001973FEF8F3F9307FD
:10092000A1F72093D201AF85B889109741F0ED91DE
:10093000FC9111970280F381E02DCD0109950E9471
:100940000B227B8B6A8BDF91CF911F910F910895C2
:10095000FC01A081B181109741F0ED91FC911197BC
:100960000190F081E02DCD01099508958091D0018D
:10097000882319F01092D00103C01092D00103C057
:100980000DB407FEFDCF1EBC0DB407FEFDCF1EBC8F
:100990000DB407FEFDCF1EBC0DB407FEFDCF1EBC7F
:1009A00081E08093D0010895FC01A081B18110976E
:1009B00041F0ED91FC9111970280F381E02DCD0182
:1009C000099508950F931F93CF93DF938B01EC014B
:1009D0002F96CE010E94A8049801220F331F200FEA
:1009E000311F4091D001C90150E807C0442319F0DC
:1009F0000DB407FEFDCF5EBD41E001976FEF8F3F65
:100A00009607A1F7C901CF9636E0959587953A9557
:100A1000E1F707C0442319F00DB407FEFDCF1EBC5B
:100A200041E001972FEF8F3F9207A1F74093D0014C
:100A3000CE010E94D404DF91CF911F910F910895B0
:100A4000DF93CF930F92CDB7DEB7229A219A209AE7
:100A500028980E94D4048CB580658CBD8CB58C7FA1
:100A60008CBD8DB589838EB5898389818DB5816073
:100A70008DBD1EBC1092D0010F90CF91DF910895D3
:100A80000F931F938C010F960E942005F801138A83
:100A9000128A1F910F9108950F960E9420050895C4
:100AA0000F960E94200508950F960E942005089534
:100AB0008091D001882319F01092D00103C01092C8
:100AC000D00103C00DB407FEFDCF1EBC0DB407FE60
:100AD000FDCF1EBC0DB407FEFDCF1EBC0DB407FE3E
:100AE000FDCF1EBC81E08093D00108959CB59F7B13
:100AF0009CBD80FF02C02A9A01C02A98299A299891
:100B00008CB580648CBD1092D0010895CF93DF9393
:100B1000EC012F96CE010E94A8042091D00186E01E
:100B200090E007C0222319F00DB407FEFDCF1EBCD4
:100B300021E001973FEF8F3F9307A1F7222319F0A0
:100B40001092D00103C01092D00103C00DB407FE73
:100B5000FDCF80E00E94760580E00E947605CE0100
:100B60000E94D404DF91CF910895EF92FF920F93EA
:100B70001F93CF93DF937C01EB018C01015F1F4F2B
:100B8000C8010E94A8041EC081E00E9476058091E1
:100B9000D001882319F01092D00103C01092D00127
:100BA00003C00DB407FEFDCF1EBC0DB407FEFDCF84
:100BB0001EBC1092D0010DB407FEFDCF1EBC81E01B
:100BC0008093D00121978FEFCF3FD807E9F680912E
:100BD000D001882319F01092D00103C01092D001E7
:100BE00003C00DB407FEFDCFC8010E94D404C701A5
:100BF0000E948605DF91CF911F910F91FF90EF909A
:100C000008950F931F93CF93DF938C01EB010E9404
:100C1000A80456C081E00E947605E881F981308100
:100C2000332321F02C81320F08F43FEF2A85329FC5
:100C3000312D11243EBD1092D0010DB407FEFDCF21
:100C40008181882311F440E005C02D81482F420F97
:100C500008F44FEF3B85242F239F212D11242EBD17
:100C60001092D0010DB407FEFDCF8281882311F4CC
:100C700040E005C02E81482F420F08F44FEF3C851D
:100C8000242F239F212D11242EBD1092D0010DB4AD
:100C900007FEFDCF8D85E80FF11DF983E8838A817A
:100CA0009B8101979B838A838F819C81891B8C8385
:100CB00088859D81891B8D8389859E81891B8E8373
:100CC0008A819B81181619060CF4A4CFC8010E94D2
:100CD000D404DF91CF911F910F9108950F931F932B
:100CE000CF93DF938C01EB01FC01A081B1811097C0
:100CF00009F466C0ED91FC9111970190F081E02D0F
:100D0000CD0109955DC0E881F9818081882311F4C6
:100D100030E005C02C81382F320F08F43FEF2A85D0
:100D2000329F312D11248091D201882329F0109215
:100D3000D2010DB407FEFDCF3EBD4093D2018181AB
:100D4000882311F430E005C02D81382F320F08F4CC
:100D50003FEF2B85329F312D11240DB407FEFDCFBF
:100D60003EBD4093D2018281882311F430E005C05A
:100D70002E81382F320F08F43FEF2C85329F312D12
:100D800011241092D2010DB407FEFDCF3EBD409359
:100D9000D2018D85E80FF11DF983E8838A819B815B
:100DA00001979B838A838F819C81891B8C83888593
:100DB0009D81891B8D8389859E81891B8E8301C0BE
:100DC00041E08A819B81181619060CF49CCFF8012A
:100DD000A081B181109741F0ED91FC9111970280B3
:100DE000F381E02DCD010995DF91CF911F910F91F6
:100DF0000895EF92FF920F931F93CF93DF937C019F
:100E0000EB010A811B810E94A80441E077C0E881C0
:100E1000F9818081882311F430E005C02C81382FBE
:100E2000320F08F43FEF2A85329F312D1124809133
:100E3000D001882329F01092D0010DB407FEFDCF18
:100E4000832F8695806890E031503D3F08F491E013
:100E5000890F8EBD4093D0018181882311F430E049
:100E600005C02D81382F320F08F43FEF2B85329FBC
:100E7000312D11240DB407FEFDCF832F8695806898
:100E800090E031503D3F08F491E0890F8EBD4093D2
:100E9000D0018281882311F430E005C02E81382FE3
:100EA000320F08F43FEF2C85329F312D1124109220
:100EB000D0010DB407FEFDCF832F8695806890E0AA
:100EC00031503D3F08F491E0890F8EBD4093D00131
:100ED0008D85E80FF11DF983E8838A819B81019755
:100EE0009B838A838F819C81891B8C8388859D81CC
:100EF000891B8D8389859E81891B8E838A819B8135
:100F0000181619060CF483CFC801880F991F800F9B
:100F1000911FCF9656E0959587955A95E1F72091C8
:100F2000D00107C0222319F00DB407FEFDCF1EBC6F
:100F300021E001973FEF8F3F9307A1F72093D00166
:100F4000C7010E94D404DF91CF911F910F91FF90B0
:100F5000EF9008951F93CF93DF93382F492F8091FF
:100F6000D1018F5F87708093D10180FD02C020E0A6
:100F700001C020E881FD206482FD2062122F105FF5
:100F8000832F942F9C01F901C0E0D0E06285662395
:100F900031F080E091E070E00E947B276F5F678313
:100FA000212F269F212D11242483662311F06150C7
:100FB000678321963196C330D10541F7DF91CF91F8
:100FC0001F910895FC01613019F40E94AA07089549
:100FD0001186108617821682158214820895CF9288
:100FE000EF920F931F93CF93DF93EC01F901798375
:100FF00068835B834A8380818A8781818B87828132
:101000008C87CE01602F0E94E207888199818C0D28
:10101000911D99838883EE2011F480E002C08C2D0D
:101020008D5F8D87DF91CF911F910F91EF90CF90C2
:1010300008955F926F927F928F929F92AF92BF922C
:10104000CF92DF92EF92FF920F931F93DF93CF9394
:10105000CDB7DEB72E970FB6F894DEBF0FBECDBF6B
:101060005C014A01E02FCE2CCE010196D5011C96E1
:101070000C91EE2E0E94EF07F501278530890E9422
:101080000B22621B730B62337105C8F3F89439812C
:101090004A8185B12A9818858D81181B1D83E981A5
:1010A000FA81E081EE2311F420E004C02E2F210FFD
:1010B00008F42FEF832F942FFC01DB84022F2D2DBA
:1010C000029F012D1124FE84AB81BC81CC84ED8470
:1010D0007E816F81788469845A8450E040E030E0FA
:1010E00020E080C1872D811B182F862D871B782F2C
:1010F000852D861B682F95B1946085B18B7F1197E4
:1011000095B900C007FF85B921813327889400C0B5
:1011100000C0002C85B92111270F00C0002C95B903
:1011200000C006FF85B908F42FEF889400C000C006
:1011300000C085B9C0FC320F00C0002C95B900C0BA
:1011400005FF85B937958894C1FC320F00C000C0F7
:10115000002C85B93795889400C0002C95B900C043
:1011600004FF85B9C2FC320F3795889400C000C0D7
:10117000002C85B9C3FC320F00C0002C95B900C00B
:1011800003FF85B937958894C4FC320F00C000C0B6
:10119000002C85B93795889400C0002C95B900C003
:1011A00002FF85B9C5FC320F3795889400C000C096
:1011B000002C85B9C6FC320F00C0002C95B900C0C8
:1011C00001FF85B937958894C7FC320F00C000C075
:1011D000002C85B93795889400C0002C95B900C0C3
:1011E00000FF85B900C000C0002C00C000C085B958
:1011F00000C000C0002C95B900C037FF85B922811E
:101200004427889400C000C0002C85B92111260F06
:1012100000C0002C95B900C036FF85B908F42FEF47
:10122000889400C000C000C085B9E0FC420F00C037
:10123000002C95B900C035FF85B947958894E1FC2D
:10124000420F00C000C0002C85B94795889400C0AB
:10125000002C95B900C034FF85B9E2FC420F4795D8
:10126000889400C000C0002C85B9E3FC420F00C088
:10127000002C95B900C033FF85B947958894E4FCEC
:10128000420F00C000C0002C85B94795889400C06B
:10129000002C95B900C032FF85B9E5FC420F479597
:1012A000889400C000C0002C85B9E6FC420F00C045
:1012B000002C95B900C031FF85B947958894E7FCAB
:1012C000420F00C000C0002C85B94795889400C02B
:1012D000002C95B900C030FF85B9EF0DF11D889441
:1012E00000C000C000C085B900C000C0002C95B986
:1012F00000C047FF85B920810027889400C000C046
:10130000002C85B92111210F00C0002C95B900C017
:1013100046FF85B908F42FEF889400C000C000C0D4
:1013200085B9D0FC020F00C0002C95B900C045FF64
:1013300085B907958894D1FC020F00C000C0002C2D
:1013400085B90795889400C0002C95B900C044FF6A
:1013500085B9D2FC020F0795889400C000C0002C0C
:1013600085B9D3FC020F00C0002C95B900C043FF23
:1013700085B907958894D4FC020F00C000C0002CEA
:1013800085B90795889400C0002C95B900C042FF2C
:1013900085B9D5FC020F0795889400C000C0002CC9
:1013A00085B9D6FC020F00C0002C95B900C041FFE2
:1013B00085B907958894D7FC020F00C000C0002CA7
:1013C00085B90795889400C0002C95B900C040FFEE
:1013D00085B900C000C0002C00C000C085B900C0A5
:1013E00000C0002C109709F07DCEB401882777FD4E
:1013F0008095982F20EE31E040E050E00E94482791
:101400007B018C01DC01CB01E4E0B695A7959795B3
:101410008795EA95D1F781509440A040B040B0F054
:101420002091DA013091DB014091DC015091DD0126
:10143000D801C7017EE0B695A795979587957A95CF
:10144000D1F7820F931FA41FB51F0BC08091DA0143
:101450009091DB01A091DC01B091DD010196A11D0D
:10146000B11D8093DA019093DB01A093DC01B0936E
:10147000DD0178940E940B22D50150967C936E93E7
:101480001F972E960FB6F894DEBF0FBECDBFCF913B
:10149000DF911F910F91FF90EF90DF90CF90BF9061
:1014A000AF909F908F907F906F905F900895EF9294
:1014B000FF920F93DF93CF9300D00F92CDB7DEB79B
:1014C000AB0119821A821B829E012F5F3F4FB90127
:1014D00000E0EE24FF240E9419080F900F900F9057
:1014E000CF91DF910F91FF90EF900895EF92FF92CF
:1014F0000F9301E0EE24FF240E9419080F91FF9042
:10150000EF900895EF92FF920F9300E0EE24FF24F6
:101510000E9419080F91FF90EF9008955F926F92CB
:101520007F928F929F92AF92BF92CF92DF92EF9273
:10153000FF920F931F93DF93CF93CDB7DEB72E9714
:101540000FB6F894DEBF0FBECDBF5C014A01E02F9D
:10155000CE2CCE010196D5011C960C91EE2E0E9448
:10156000EF07F501278530890E940B22621B730B60
:1015700062337105C8F3F89439814A8185B12A989C
:1015800018858D81181B1D83E981FA81E081EE2386
:1015900011F420E004C02E2F210F08F42FEF832F29
:1015A000942FFC01DB84022F2D2D029F012D11248D
:1015B000FE84AB81BC81CC84ED847E816F81788494
:1015C00069845A8450E040E030E020E0B0C1872DCB
:1015D000811B182F862D871B782F852D861B682F42
:1015E00095B1946085B18B7F119795B900C007FFC5
:1015F00085B9218133278894002C85B92111270FC3
:10160000002C95B900C006FF85B908F42FEF889427
:1016100000C085B9C0FC320F002C95B900C005FF91
:1016200085B937958894C1FC320F002C85B9379560
:101630008894002C95B900C004FF85B9C2FC320F14
:1016400037958894002C85B9C3FC320F002C95B9CE
:1016500000C003FF85B937958894C4FC320F002C75
:1016600085B937958894002C95B900C002FF85B9DB
:10167000C5FC320F37958894002C85B9C6FC320F13
:10168000002C95B900C001FF85B937958894C7FC37
:10169000320F002C85B937958894002C95B900C07D
:1016A00000FF85B900C000C0002C85B900C0002C27
:1016B00095B900C000FF85B900C000C0002C85B9F5
:1016C00000C0002C95B900C000FF85B900C000C063
:1016D000002C85B900C0002C95B900C000FF85B969
:1016E00000C000C0002C85B900C0002C95B900C016
:1016F00000FF85B900C000C0002C85B900C0002CD7
:1017000095B900C037FF85B9228144278894002C01
:1017100085B92111260F002C95B900C036FF85B977
:1017200008F42FEF889400C085B9E0FC420F002C2C
:1017300095B900C035FF85B947958894E1FC420F03
:10174000002C85B947958894002C95B900C034FFCA
:1017500085B9E2FC420F47958894002C85B9E3FCDB
:10176000420F002C95B900C033FF85B94795889486
:10177000E4FC420F002C85B947958894002C95B95C
:1017800000C032FF85B9E5FC420F47958894002CD4
:1017900085B9E6FC420F002C95B900C031FF85B930
:1017A00047958894E7FC420F002C85B947958894AB
:1017B000002C95B900C030FF85B9EF0DF11D88945C
:1017C00000C085B900C0002C95B900C030FF85B9B4
:1017D00000C000C0002C85B900C0002C95B900C025
:1017E00030FF85B900C000C0002C85B900C0002CB6
:1017F00095B900C030FF85B900C000C0002C85B984
:1018000000C0002C95B900C030FF85B900C000C0F1
:10181000002C85B900C0002C95B900C047FF85B9E0
:10182000208100278894002C85B92111210F002CDC
:1018300095B900C046FF85B908F42FEF889400C021
:1018400085B9D0FC020F002C95B900C045FF85B9C1
:1018500007958894D1FC020F002C85B907958894D0
:10186000002C95B900C044FF85B9D2FC020F079542
:101870008894002C85B9D3FC020F002C95B900C0C8
:1018800043FF85B907958894D4FC020F002C85B9D5
:1018900007958894002C95B900C042FF85B9D5FC06
:1018A000020F07958894002C85B9D6FC020F002CF6
:1018B00095B900C041FF85B907958894D7FC020F00
:1018C000002C85B907958894002C95B900C040FF7D
:1018D00085B900C000C0002C85B900C0002C95B9A6
:1018E00000C030FF85B900C000C0002C85B900C021
:1018F000002C95B900C030FF85B900C000C0002C95
:1019000085B900C0002C95B900C030FF85B900C072
:1019100000C0002C85B900C0002C95B900C030FF74
:1019200085B900C000C0002C85B900C0002C1097FC
:1019300009F04DCEB401882777FD8095982F20E5DA
:1019400031E040E050E00E9448277B018C01DC013F
:10195000CB0124E0B695A795979587952A95D1F761
:1019600081509440A040B040B0F02091DA01309115
:10197000DB014091DC015091DD01D801C701FEE09F
:10198000B695A79597958795FA95D1F7820F931FEE
:10199000A41FB51F0BC08091DA019091DB01A091CB
:1019A000DC01B091DD010196A11DB11D8093DA012A
:1019B0009093DB01A093DC01B093DD0178940E9449
:1019C0000B22D50150967C936E931F972E960FB6DF
:1019D000F894DEBF0FBECDBFCF91DF911F910F9165
:1019E000FF90EF90DF90CF90BF90AF909F908F903F
:1019F0007F906F905F900895EF92FF920F93DF9327
:101A0000CF9300D00F92CDB7DEB7AB0119821A8207
:101A10001B829E012F5F3F4FB90100E0EE24FF249F
:101A20000E948E0A0F900F900F90CF91DF910F912F
:101A3000FF90EF900895EF92FF920F9301E0EE2454
:101A4000FF240E948E0A0F91FF90EF900895EF926D
:101A5000FF920F9300E0EE24FF240E948E0A0F9164
:101A6000FF90EF9008955F926F927F928F929F9276
:101A7000AF92BF92CF92DF92EF92FF920F931F939C
:101A8000DF93CF93CDB7DEB72E970FB6F894DEBFB6
:101A90000FBECDBF5C014A01E02FCE2CCE010196D6
:101AA000D5011C960C91EE2E0E94EF07F5012785BB
:101AB00030890E940B22621B730B62337105C8F3DD
:101AC000F89439814A8185B12A9818858D81181B2F
:101AD0001D83E981FA81E081EE2311F420E004C046
:101AE0002E2F210F08F42FEF832F942FFC01DB847E
:101AF000022F2D2D029F012D1124FE84AB81BC816C
:101B0000CC84ED847E816F81788469845A8420E05E
:101B100050E040E030E070C2872D811B182F862DE9
:101B2000871B782F852D861B682F95B1946085B112
:101B30008B7F119795B900C000C000C007FF85B921
:101B4000318144278894002C20F023E02A95F1F776
:101B500021F023E02A95F1F7089485B93111370F68
:101B600000C000C0002C95B900C000C000C006FF36
:101B700085B908F43FEF889400C020F023E02A954F
:101B8000F1F721F023E02A95F1F7089485B9C0FC1C
:101B9000430F00C000C0002C95B900C000C000C0B9
:101BA00005FF85B947958894C1FC430F002C20F0B0
:101BB00023E02A95F1F721F023E02A95F1F7089424
:101BC00085B94795889400C000C0002C95B900C025
:101BD00000C000C004FF85B9C2FC430F479588943C
:101BE000002C20F023E02A95F1F721F023E02A953C
:101BF000F1F7089485B9C3FC430F00C000C0002C66
:101C000095B900C000C000C003FF85B9479588940E
:101C1000C4FC430F002C20F023E02A95F1F721F0BB
:101C200023E02A95F1F7089485B94795889400C078
:101C300000C0002C95B900C000C000C002FF85B9EB
:101C4000C5FC430F47958894002C20F023E02A958B
:101C5000F1F721F023E02A95F1F7089485B9C6FC45
:101C6000430F00C000C0002C95B900C000C000C0E8
:101C700001FF85B947958894C7FC430F002C20F0DD
:101C800023E02A95F1F721F023E02A95F1F7089453
:101C900085B94795889400C000C0002C95B900C054
:101CA00000C000C000FF85B900C000C0002C20F0BB
:101CB00023E02A95F1F721F023E02A95F1F7089423
:101CC00085B900C000C000C0002C95B900C000C09C
:101CD00000C047FF85B9328155278894002C20F039
:101CE00023E02A95F1F721F023E02A95F1F70894F3
:101CF00085B93111360F00C000C0002C95B900C065
:101D000000C000C046FF85B908F43FEF889400C0CA
:101D100020F023E02A95F1F721F023E02A95F1F74E
:101D2000089485B9E0FC530F00C000C0002C95B9A1
:101D300000C000C000C045FF85B957958894E1FCFC
:101D4000530F002C20F023E02A95F1F721F023E037
:101D50002A95F1F7089485B95795889400C000C07A
:101D6000002C95B900C000C000C044FF85B9E2FC5A
:101D7000530F57958894002C20F023E02A95F1F713
:101D800021F023E02A95F1F7089485B9E3FC530F7D
:101D900000C000C0002C95B900C000C000C043FFC7
:101DA00085B957958894E4FC530F002C20F023E06C
:101DB0002A95F1F721F023E02A95F1F7089485B9E7
:101DC0005795889400C000C0002C95B900C000C091
:101DD00000C042FF85B9E5FC530F57958894002C4D
:101DE00020F023E02A95F1F721F023E02A95F1F77E
:101DF000089485B9E6FC530F00C000C0002C95B9CB
:101E000000C000C000C041FF85B957958894E7FC29
:101E1000530F002C20F023E02A95F1F721F023E066
:101E20002A95F1F7089485B95795889400C000C0A9
:101E3000002C95B900C000C000C040FF85B9EF0D6F
:101E4000F11D889400C020F023E02A95F1F721F0DD
:101E500023E02A95F1F7089485B900C000C000C0BE
:101E6000002C95B900C000C000C057FF85B9308173
:101E700000278894002C20F023E02A95F1F721F028
:101E800023E02A95F1F7089485B93111310F00C08C
:101E900000C0002C95B900C000C000C056FF85B935
:101EA00008F43FEF889400C020F023E02A95F1F772
:101EB00021F023E02A95F1F7089485B9D0FC030FAF
:101EC00000C000C0002C95B900C000C000C055FF84
:101ED00085B907958894D1FC030F002C20F023E0EE
:101EE0002A95F1F721F023E02A95F1F7089485B9B6
:101EF0000795889400C000C0002C95B900C000C0B0
:101F000000C054FF85B9D2FC030F07958894002CBC
:101F100020F023E02A95F1F721F023E02A95F1F74C
:101F2000089485B9D3FC030F00C000C0002C95B9FC
:101F300000C000C000C053FF85B907958894D4FC49
:101F4000030F002C20F023E02A95F1F721F023E085
:101F50002A95F1F7089485B90795889400C000C0C8
:101F6000002C95B900C000C000C052FF85B9D5FC57
:101F7000030F07958894002C20F023E02A95F1F7B1
:101F800021F023E02A95F1F7089485B9D6FC030FD8
:101F900000C000C0002C95B900C000C000C051FFB7
:101FA00085B907958894D7FC030F002C20F023E017
:101FB0002A95F1F721F023E02A95F1F7089485B9E5
:101FC0000795889400C000C0002C95B900C000C0DF
:101FD00000C050FF85B900C000C0002C20F023E0F5
:101FE0002A95F1F721F023E02A95F1F7089485B9B5
:101FF00000C000C000C0002C109709F08DCDB401C6
:10200000882777FD8095982F20EC33E040E050E062
:102010000E9448277B018C01DC01CB0174E0B6955E
:10202000A795979587957A95D1F781509440A040D0
:10203000B040B0F02091DA013091DB014091DC0139
:102040005091DD01D801C7016EE0B695A79597952F
:1020500087956A95D1F7820F931FA41FB51F0BC0F8
:102060008091DA019091DB01A091DC01B091DD015A
:102070000196A11DB11D8093DA019093DB01A0931D
:10208000DC01B093DD0178940E940B22D5015096BB
:102090007C936E931F972E960FB6F894DEBF0FBEFB
:1020A000CDBFCF91DF911F910F91FF90EF90DF9007
:1020B000CF90BF90AF909F908F907F906F905F90E8
:1020C0000895EF92FF920F93DF93CF9300D00F927A
:1020D000CDB7DEB7AB0119821A821B829E012F5F3A
:1020E0003F4FB90100E0EE24FF240E94330D0F9012
:1020F0000F900F90CF91DF910F91FF90EF90089587
:10210000EF92FF920F9301E0EE24FF240E94330D23
:102110000F91FF90EF900895EF92FF920F9300E0E0
:10212000EE24FF240E94330D0F91FF90EF9008954D
:102130005F926F927F928F929F92AF92BF92CF9257
:10214000DF92EF92FF920F931F93DF93CF93CDB760
:10215000DEB72E970FB6F894DEBF0FBECDBF5C0181
:102160004A01E02FCE2CCE010196D5011C960C9190
:10217000EE2E0E94EF07F501278530890E940B2281
:10218000621B730B62337105C8F3F89439814A817D
:1021900085B12A9818858D81181B1D83E981FA81E4
:1021A000E081EE2311F420E004C02E2F210F08F46B
:1021B0002FEF832F942FFC01DB84022F2D2D029F04
:1021C000012D1124FE84AB81BC81CC84ED847E8101
:1021D0006F81788469845A8420E050E040E030E0E8
:1021E000E2C2872D811B182F862D871B782F852D06
:1021F000861B682F95B1946085B18B7F119795B937
:1022000000C000C000C000C000C007FF85B9318118
:1022100044278894002C20F022E02A95F1F721F041
:1022200022E02A95F1F7089485B93111370F00C0E3
:1022300000C0002C00C000C095B900C000C000C0A4
:1022400000C000C006FF85B908F43FEF889400C0C5
:1022500020F022E02A95F1F721F022E02A95F1F70B
:10226000089485B9C0FC430F00C000C0002C00C01A
:1022700000C095B900C000C000C000C000C005FF8C
:1022800085B947958894C1FC430F002C20F022E0CB
:102290002A95F1F721F022E02A95F1F7089485B903
:1022A0004795889400C000C0002C00C000C095B9BC
:1022B00000C000C000C000C000C004FF85B9C2FC5F
:1022C000430F47958894002C20F022E02A95F1F7DF
:1022D00021F022E02A95F1F7089485B9C3FC430F59
:1022E00000C000C0002C00C000C095B900C000C0F4
:1022F00000C000C000C003FF85B947958894C4FCA6
:10230000430F002C20F022E02A95F1F721F022E083
:102310002A95F1F7089485B94795889400C000C0C4
:10232000002C00C000C095B900C000C000C000C0B3
:1023300000C002FF85B9C5FC430F47958894002C67
:1023400020F022E02A95F1F721F022E02A95F1F71A
:10235000089485B9C6FC430F00C000C0002C00C023
:1023600000C095B900C000C000C000C000C001FF9F
:1023700085B947958894C7FC430F002C20F022E0D4
:102380002A95F1F721F022E02A95F1F7089485B912
:102390004795889400C000C0002C00C000C095B9CB
:1023A00000C000C000C000C000C000FF85B900C070
:1023B00000C0002C20F022E02A95F1F721F022E065
:1023C0002A95F1F7089485B900C000C0002C20F0D0
:1023D00021E02A95F1F721F021E02A95F1F7089400
:1023E00095B900C000C000C000C000C047FF85B95B
:1023F000328155278894002C20F022E02A95F1F7AD
:1024000021F022E02A95F1F7089485B93111360FB1
:1024100000C000C0002C00C000C095B900C000C0C2
:1024200000C000C000C046FF85B908F43FEF8894A3
:1024300000C020F022E02A95F1F721F022E02A9551
:10244000F1F7089485B9E0FC530F00C000C0002CE0
:1024500000C000C095B900C000C000C000C000C0EE
:1024600045FF85B957958894E1FC530F002C20F067
:1024700022E02A95F1F721F022E02A95F1F708945D
:1024800085B95795889400C000C0002C00C000C0DA
:1024900095B900C000C000C000C000C044FF85B9AD
:1024A000E2FC530F57958894002C20F022E02A95E7
:1024B000F1F721F022E02A95F1F7089485B9E3FCC1
:1024C000530F00C000C0002C00C000C095B900C070
:1024D00000C000C000C000C043FF85B95795889474
:1024E000E4FC530F002C20F022E02A95F1F721F0B4
:1024F00022E02A95F1F7089485B95795889400C091
:1025000000C0002C00C000C095B900C000C000C0D1
:1025100000C000C042FF85B9E5FC530F5795889471
:10252000002C20F022E02A95F1F721F022E02A95F4
:10253000F1F7089485B9E6FC530F00C000C0002CE9
:1025400000C000C095B900C000C000C000C000C0FD
:1025500041FF85B957958894E7FC530F002C20F074
:1025600022E02A95F1F721F022E02A95F1F708946C
:1025700085B95795889400C000C0002C00C000C0E9
:1025800095B900C000C000C000C000C040FF85B9C0
:10259000EF0DF11D889400C020F022E02A95F1F79C
:1025A00021F022E02A95F1F7089485B900C000C017
:1025B000002C20F021E02A95F1F721F021E02A9566
:1025C000F1F7089495B900C000C000C000C000C079
:1025D00057FF85B9308100278894002C20F022E035
:1025E0002A95F1F721F022E02A95F1F7089485B9B0
:1025F0003111310F00C000C0002C00C000C095B9DF
:1026000000C000C000C000C000C056FF85B908F47B
:102610003FEF889400C020F022E02A95F1F721F0E6
:1026200022E02A95F1F7089485B9D0FC030F00C089
:1026300000C0002C00C000C095B900C000C000C0A0
:1026400000C000C055FF85B907958894D1FC030FE1
:10265000002C20F022E02A95F1F721F022E02A95C3
:10266000F1F7089485B90795889400C000C0002C44
:1026700000C000C095B900C000C000C000C000C0CC
:1026800054FF85B9D2FC030F07958894002C20F0E5
:1026900022E02A95F1F721F022E02A95F1F708943B
:1026A00085B9D3FC030F00C000C0002C00C000C0DF
:1026B00095B900C000C000C000C000C053FF85B97C
:1026C00007958894D4FC030F002C20F022E02A9573
:1026D000F1F721F022E02A95F1F7089485B90795E2
:1026E000889400C000C0002C00C000C095B900C094
:1026F00000C000C000C000C052FF85B9D5FC030F68
:1027000007958894002C20F022E02A95F1F721F01B
:1027100022E02A95F1F7089485B9D6FC030F00C092
:1027200000C0002C00C000C095B900C000C000C0AF
:1027300000C000C051FF85B907958894D7FC030FEE
:10274000002C20F022E02A95F1F721F022E02A95D2
:10275000F1F7089485B90795889400C000C0002C53
:1027600000C000C095B900C000C000C000C000C0DB
:1027700050FF85B900C000C0002C20F022E02A954F
:10278000F1F721F022E02A95F1F7089485B900C00D
:1027900000C0002C20F021E02A95F1F721F021E083
:1027A0002A95F1F70894109709F01BCDB4018827FA
:1027B00077FD8095982F20EF33E040E050E00E94B5
:1027C00048277B018C01DC01CB01F4E0B695A7958D
:1027D00097958795FA95D1F781509440A040B040E5
:1027E000B0F02091DA013091DB014091DC01509191
:1027F000DD01D801C701EEE0B695A79597958795BD
:10280000EA95D1F7820F931FA41FB51F0BC08091CB
:10281000DA019091DB01A091DC01B091DD0101961C
:10282000A11DB11D8093DA019093DB01A093DC011F
:10283000B093DD0178940E940B22D50150967C93D1
:102840006E931F972E960FB6F894DEBF0FBECDBFC6
:10285000CF91DF911F910F91FF90EF90DF90CF907C
:10286000BF90AF909F908F907F906F905F900895F2
:10287000EF92FF920F93DF93CF9300D00F92CDB7DB
:10288000DEB7AB0119821A821B829E012F5F3F4F78
:10289000B90100E0EE24FF240E9498100F900F90E1
:1028A0000F90CF91DF910F91FF90EF900895EF92ED
:1028B000FF920F9301E0EE24FF240E9498100F91E5
:1028C000FF90EF900895EF92FF920F9300E0EE24B7
:1028D000FF240E9498100F91FF90EF9008955F924F
:1028E0006F927F928F929F92AF92BF92CF92DF9220
:1028F000EF92FF920F931F93DF93CF93CDB7DEB785
:102900002E970FB6F894DEBF0FBECDBF5C014A0113
:10291000E02FCE2CCE010196D5011C960C91EE2E07
:102920000E94EF07F501278530890E940B22621B68
:10293000730B62337105C8F3F89439814A8185B10C
:102940002A9818858D81181B1D83E981FA81E08101
:10295000EE2311F420E004C02E2F210F08F42FEFF6
:10296000832F942FFC01DB84022F2D2D029F012D3C
:102970001124FE84AB81BC81CC84ED847E816F8187
:10298000688459847A8420E050E040E030E0C4C29A
:10299000862D811B182F852D871B782F872D861B51
:1029A000682F95B1946085B18B7F119795B900C060
:1029B00000C000C007FF85B931814427889400C05A
:1029C000002C20F022E02A95F1F721F022E02A9550
:1029D000F1F7089485B93111370F00C000C0002C01
:1029E00000C000C095B900C000C000C006FF85B996
:1029F00008F43FEF889400C000C020F022E02A9540
:102A0000F1F721F022E02A95F1F7089485B9C0FC8E
:102A1000430F00C000C0002C00C000C095B900C02A
:102A200000C000C005FF85B947958894C1FC430FDD
:102A300000C0002C20F022E02A95F1F721F022E0DE
:102A40002A95F1F7089485B94795889400C000C08D
:102A5000002C00C000C095B900C000C000C004FF39
:102A600085B9C2FC430F4795889400C0002C20F024
:102A700022E02A95F1F721F022E02A95F1F7089457
:102A800085B9C3FC430F00C000C0002C00C000C0CB
:102A900095B900C000C000C003FF85B94795889470
:102AA000C4FC430F00C0002C20F022E02A95F1F76F
:102AB00021F022E02A95F1F7089485B9479588948A
:102AC00000C000C0002C00C000C095B900C000C00C
:102AD00000C002FF85B9C5FC430F4795889400C02C
:102AE000002C20F022E02A95F1F721F022E02A952F
:102AF000F1F7089485B9C6FC430F00C000C0002C54
:102B000000C000C095B900C000C000C001FF85B979
:102B100047958894C7FC430F00C0002C20F022E0AA
:102B20002A95F1F721F022E02A95F1F7089485B96A
:102B30004795889400C000C0002C00C000C095B923
:102B400000C000C000C000FF85B9002C20F023E0C9
:102B50002A95F1F721F023E02A95F1F7089485B939
:102B600000C000C0002C20F021E02A95F1F721F0F0
:102B700021E02A95F1F7089495B900C000C000C083
:102B800047FF85B932815527889400C0002C20F07A
:102B900022E02A95F1F721F022E02A95F1F7089436
:102BA00085B93111360F00C000C0002C00C000C034
:102BB00095B900C000C000C046FF85B908F43FEFDA
:102BC000889400C000C020F022E02A95F1F721F09F
:102BD00022E02A95F1F7089485B9E0FC530F00C074
:102BE00000C0002C00C000C095B900C000C000C0EB
:102BF00045FF85B957958894E1FC530F00C0002C20
:102C000020F022E02A95F1F721F022E02A95F1F751
:102C1000089485B95795889400C000C0002C00C066
:102C200000C095B900C000C000C044FF85B9E2FCF7
:102C3000530F5795889400C0002C20F022E02A956D
:102C4000F1F721F022E02A95F1F7089485B9E3FC29
:102C5000530F00C000C0002C00C000C095B900C0D8
:102C600000C000C043FF85B957958894E4FC530F1A
:102C700000C0002C20F022E02A95F1F721F022E09C
:102C80002A95F1F7089485B95795889400C000C03B
:102C9000002C00C000C095B900C000C000C042FFB9
:102CA00085B9E5FC530F5795889400C0002C20F09F
:102CB00022E02A95F1F721F022E02A95F1F7089415
:102CC00085B9E6FC530F00C000C0002C00C000C056
:102CD00095B900C000C000C041FF85B957958894E0
:102CE000E7FC530F00C0002C20F022E02A95F1F7FA
:102CF00021F022E02A95F1F7089485B95795889438
:102D000000C000C0002C00C000C095B900C000C0C9
:102D100000C040FF85B9EF0DF11D889400C000C0D0
:102D200020F022E02A95F1F721F022E02A95F1F730
:102D3000089485B900C000C0002C20F021E02A953D
:102D4000F1F721F021E02A95F1F7089495B900C038
:102D500000C000C057FF85B930810027889400C0AB
:102D6000002C20F022E02A95F1F721F022E02A95AC
:102D7000F1F7089485B93111310F00C000C0002C63
:102D800000C000C095B900C000C000C056FF85B9A2
:102D900008F43FEF889400C000C020F022E02A959C
:102DA000F1F721F022E02A95F1F7089485B9D0FCDB
:102DB000030F00C000C0002C00C000C095B900C0C7
:102DC00000C000C055FF85B907958894D1FC030F5A
:102DD00000C0002C20F022E02A95F1F721F022E03B
:102DE0002A95F1F7089485B90795889400C000C02A
:102DF000002C00C000C095B900C000C000C054FF46
:102E000085B9D2FC030F0795889400C0002C20F0F0
:102E100022E02A95F1F721F022E02A95F1F70894B3
:102E200085B9D3FC030F00C000C0002C00C000C057
:102E300095B900C000C000C053FF85B907958894BC
:102E4000D4FC030F00C0002C20F022E02A95F1F7FB
:102E500021F022E02A95F1F7089485B90795889426
:102E600000C000C0002C00C000C095B900C000C068
:102E700000C052FF85B9D5FC030F0795889400C0A8
:102E8000002C20F022E02A95F1F721F022E02A958B
:102E9000F1F7089485B9D6FC030F00C000C0002CE0
:102EA00000C000C095B900C000C000C051FF85B986
:102EB00007958894D7FC030F00C0002C20F022E077
:102EC0002A95F1F721F022E02A95F1F7089485B9C7
:102ED0000795889400C000C0002C00C000C095B9C0
:102EE00000C000C000C050FF85B9002C20F023E0D6
:102EF0002A95F1F721F023E02A95F1F7089485B996
:102F000000C000C0002C20F021E02A95F1F721F04C
:102F100021E02A95F1F70894109709F039CDB40112
:102F2000882777FD8095982F20EC33E040E050E033
:102F30000E9448277B018C01DC01CB0124E0B6957F
:102F4000A795979587952A95D1F781509440A040F1
:102F5000B040B0F02091DA013091DB014091DC010A
:102F60005091DD01D801C7011EE0B695A795979550
:102F700087951A95D1F7820F931FA41FB51F0BC019
:102F80008091DA019091DB01A091DC01B091DD012B
:102F90000196A11DB11D8093DA019093DB01A093EE
:102FA000DC01B093DD0178940E940B22D50150968C
:102FB0007C936E931F972E960FB6F894DEBF0FBECC
:102FC000CDBFCF91DF911F910F91FF90EF90DF90D8
:102FD000CF90BF90AF909F908F907F906F905F90B9
:102FE0000895EF92FF920F93DF93CF9300D00F924B
:102FF000CDB7DEB7AB0119821A821B829E012F5F0B
:103000003F4FB90100E0EE24FF240E946F140F909F
:103010000F900F90CF91DF910F91FF90EF90089557
:10302000EF92FF920F9301E0EE24FF240E946F14B1
:103030000F91FF90EF900895EF92FF920F9300E0B1
:10304000EE24FF240E946F140F91FF90EF900895DB
:10305000EF92FF920F931F93DF93CF93CDB7DEB71D
:103060002E970FB6F894DEBF0FBECDBF7C01F901DD
:10307000DC011C962C917A8369835C834B8380816D
:103080008B8781818C8782818D878E010F5F1F4F97
:10309000C801622F0E94E20783E08E87C7010F9666
:1030A000B8010E94F9062E960FB6F894DEBF0FBE47
:1030B000CDBFCF91DF911F910F91FF90EF900895B9
:1030C000EF92FF920F931F93DF93CF93CDB7DEB7AD
:1030D0002E970FB6F894DEBF0FBECDBF7C01F9016D
:1030E000DC011C962C917A8369835C834B838081FD
:1030F0008B8781818C8782818D878E010F5F1F4F27
:10310000C801622F0E94E2071E86C7010F96B80110
:103110000E94F9062E960FB6F894DEBF0FBECDBF03
:10312000CF91DF911F910F91FF90EF900895EF9253
:10313000FF920F931F93DF93CF93CDB7DEB72E97F8
:103140000FB6F894DEBF0FBECDBF7C01F901DC01E4
:103150001C962C917A8369835C834B8380818B8757
:1031600081818C8782818D878E010F5F1F4FC801FF
:10317000622F0E94E20783E08E87C7010F96B80195
:103180000E940106C7010E9486052E960FB6F8948C
:10319000DEBF0FBECDBFCF91DF911F910F91FF908A
:1031A000EF900895EF92FF920F931F93DF93CF93C9
:1031B000CDB7DEB72E970FB6F894DEBF0FBECDBFEA
:1031C0007C01F901DC011C962C917A8369835C8374
:1031D0004B8380818B8781818C8782818D878E0153
:1031E0000F5F1F4FC801622F0E94E2071E86C701B2
:1031F0000F96B8010E940106C7010E9486052E960F
:103200000FB6F894DEBF0FBECDBFCF91DF911F91F7
:103210000F91FF90EF9008956F927F928F929F92FF
:10322000AF92BF92CF92DF92EF92FF920F931F93D4
:10323000DF93CF93CDB7DEB72E970FB6F894DEBFEE
:103240000FBECDBF8C016A01F901DC011C962C91E7
:103250007A8369835C834B8380818B8781818C87B0
:1032600082818D87CE010196622F0E94E20783E062
:103270008E873FE0E32EF12CE00EF11EC7010E9485
:10328000A804C8010E9458058B849C84AD848E8557
:10329000A82FB0E0B88419850A8560E070E0662444
:1032A0006A947724739464C0E981FA8180818823C9
:1032B00011F430E005C02D81382F320F08F43FEFB4
:1032C000532F282D529F512D11248181882311F4D1
:1032D00030E005C02E81382F320F08F43FEF432F26
:1032E000392D439F412D11248281882311F430E030
:1032F00005C02F81382F320F08F43FEF232F3A2DCE
:10330000239F212D11248091D001882319F0109240
:10331000D00103C01092D00103C00DB407FEFDCF51
:103320006EBC0DB407FEFDCF5EBD0DB407FEFDCF34
:103330004EBD1092D0010DB407FEFDCF2EBD709290
:10334000D001EA0FFB1FFA83E9838B819C810197EF
:103350009C838B838D819B2D981B9D838E81212F38
:10336000281B2E838F81302F381B3F836F5F7F4F49
:103370006C157D050CF498CFC7010E94D4042E96DD
:103380000FB6F894DEBF0FBECDBFCF91DF911F9176
:103390000F91FF90EF90DF90CF90BF90AF909F90F4
:1033A0008F907F906F9008954F925F927F928F924F
:1033B0009F92AF92BF92CF92DF92EF92FF920F93C4
:1033C0001F93DF93CF93CDB7DEB72E970FB6F89448
:1033D000DEBF0FBECDBF8C017A01F901DC011C9666
:1033E0002C917A8369835C834B8380818B87818175
:1033F0008C8782818D87CE010196622F0E94E20721
:103400001E865FE0C52ED12CC00ED11EC6010E94C3
:10341000A804C8010E945805E981FA819B84BF0174
:103420006F5F7F4FAC8442E0442E512C4E0E5F1EE6
:10343000BD84188509859A8577247A948824839495
:1034400059C08081882311F430E005C02D81382FC8
:10345000320F08F43FEF532F292D529F512D112485
:10346000DB018C91882311F430E005C02E81382FC8
:10347000320F08F43FEF432F2A2D429F412D112494
:10348000D2018C91882311F430E005C02F81382FB0
:10349000320F08F43FEF232F3B2D239F212D1124C2
:1034A0008091D001882319F01092D00103C01092AE
:1034B000D00103C00DB407FEFDCF7EBC0DB407FEE6
:1034C000FDCF5EBD0DB407FEFDCF4EBD1092D00105
:1034D0000DB407FEFDCF2EBD8092D0018D81A12FAE
:1034E000A81BAD838E81B02FB81BBE838F81292F7F
:1034F000281B2F830894E108F1083FEFE3163FEF04
:10350000F30609F09ECF8091D001882319F0109224
:10351000D00103C01092D00103C00DB407FEFDCF4F
:10352000C6010E94D4042E960FB6F894DEBF0FBEDB
:10353000CDBFCF91DF911F910F91FF90EF90DF9062
:10354000CF90BF90AF909F908F907F905F904F9063
:1035500008954F925F926F927F928F929F92AF9257
:10356000BF92CF92DF92EF92FF920F931F93DF9360
:10357000CF93CDB7DEB72E970FB6F894DEBF0FBE50
:10358000CDBF7C015A01F901DC011C962C917A8394
:1035900069835C834B8380818B8781818C87828167
:1035A0008D87CE010196622F0E94E20783E08E870D
:1035B0003FE0C32ED12CCE0CDF1CC6010E94A80414
:1035C000C7010E94B6045B846C847D848E85A82F1D
:1035D000B0E0888499840A8560E070E044244394D4
:1035E00087C0E981FA818081882311F430E005C029
:1035F0002D81382F320F08F43FEF132F252D129F06
:10360000112D11248181882311F430E005C02E8111
:10361000382F320F08F43FEF532F262D529F512D94
:1036200011248281882311F430E005C02F81382FC6
:10363000320F08F43FEF432F272D429F412D1124D5
:103640008091D001882319F01092D00103C010920C
:10365000D00103C00DB407FEFDCF812F90E080950F
:103660009095807C907026E0959587952A95E1F756
:10367000806C252F30E020953095207C307094E0D0
:10368000359527959A95E1F7822B242F30E02095E8
:103690003095207C30703595279535952795822B70
:1036A0008EBD0DB407FEFDCF4EBD0DB407FEFDCFA0
:1036B0005EBD1092D0010DB407FEFDCF1EBD40923D
:1036C000D001EA0FFB1FFA83E9838B819C8101976C
:1036D0009C838B838D81982D981B9D838E81292DB2
:1036E000281B2E838F81902F981B9F836F5F7F4FA6
:1036F0006A157B050CF475CFC7010E94B604C6019C
:103700000E94D4042E960FB6F894DEBF0FBECDBF34
:10371000CF91DF911F910F91FF90EF90DF90CF90AD
:10372000BF90AF909F908F907F906F905F904F90E1
:1037300008952F923F924F925F926F927F928F9255
:103740009F92AF92BF92CF92DF92EF92FF920F9330
:103750001F93DF93CF93CDB7DEB72E970FB6F894B4
:10376000DEBF0FBECDBF7C018A01F901DC011C96D2
:103770002C917A8369835C834B8380818B878181E1
:103780008C8782818D87CE010196622F0E94E2078D
:103790001E864FE0C42ED12CCE0CDF1CC6010E9429
:1037A000A804C7010E94B604E981FA815B845F0125
:1037B0000894A11CB11C6C8432E0232E312C2E0EF7
:1037C0003F1E7D84888499847A85442443947CC0F8
:1037D0008081882311F430E005C02D81382F320F0D
:1037E00008F43FEF632F252D629F612D1124D50131
:1037F0008C91882311F430E005C02E81382F320FD0
:1038000008F43FEF532F262D529F512D1124D10143
:103810008C91882311F430E005C02F81382F320FAE
:1038200008F43FEF432F272D429F412D1124809113
:10383000D001882319F01092D00103C01092D0015A
:1038400003C00DB407FEFDCF862F90E080959095C4
:10385000807C907026E0959587952A95E1F7806C9D
:10386000252F30E020953095207C3070B4E03595E0
:103870002795BA95E1F7822B242F30E020953095DB
:10388000207C30703595279535952795822B8EBDF8
:103890000DB407FEFDCF4EBD0DB407FEFDCF5EBDDE
:1038A0001092D0010DB407FEFDCF6EBD4092D00145
:1038B0008D81982D981B9D838E81A92DA81BAE8389
:1038C0008F81B72FB81BBF83015010402FEF0F3FE0
:1038D000120709F07DCFC7010E94B6048091D00184
:1038E000882319F01092D00103C01092D00103C0B8
:1038F0000DB407FEFDCFC6010E94D4042E960FB66C
:10390000F894DEBF0FBECDBFCF91DF911F910F9115
:10391000FF90EF90DF90CF90BF90AF909F908F90EF
:103920007F906F905F904F903F902F900895EF920F
:10393000FF920F931F93DF93CF93CDB7DEB72E97F0
:103940000FB6F894DEBF0FBECDBF7C018B01F9012D
:10395000DC0152962D913C9153970E940B22621BE1
:10396000730B685E7340C8F3D7011C966C911A8381
:1039700009835C834B8380818B8781818C878281E3
:103980008D878E010F5F1F4FC8010E94E20783E001
:103990008E87C7010F96B8010E946E060E940B2207
:1039A000F701738B628B2E960FB6F894DEBF0FBEB5
:1039B000CDBFCF91DF911F910F91FF90EF900895B0
:1039C000EF92FF920F931F93DF93CF93CDB7DEB7A4
:1039D0002E970FB6F894DEBF0FBECDBF7C018B01D2
:1039E000F901DC0152962D913C9153970E940B22D4
:1039F000621B730B685E7340C8F3D7011C966C9111
:103A00001A8309835C834B8380818B8781818C87B8
:103A100082818D878E010F5F1F4FC8010E94E207D0
:103A20001E86C7010F96B8010E946E060E940B22E7
:103A3000F701738B628B2E960FB6F894DEBF0FBE24
:103A4000CDBFCF91DF911F910F91FF90EF9008951F
:103A50000F931F93CF93DF9361E070E00FEB11E0C2
:103A6000EB01219683ED91E00E94B920F80181934A
:103A70008F01C530D10511F0BE01F2CFDF91CF919A
:103A80001F910F9108950F931F93CF93DF9361E0E0
:103A900070E00FEB11E0EB012196F80141918F01ED
:103AA00083ED91E00E94C020C530D10511F0BE0128
:103AB000F2CFDF91CF911F910F91089581E0809314
:103AC000BF0181E090E09093C1018093C00180E14B
:103AD0008093C2010E94431D83ED91E060E170E09C
:103AE00040E00E94C0200895EF92FF920F931F9331
:103AF000DF93CF9300D0CDB7DEB783E08093020190
:103B00008091D4019091D501009711F48BEF91E051
:103B1000BE016F5F7F4F681B790B882777FD80950B
:103B2000982F645B70408040904023E030E040E09C
:103B300050E00E948E278091C0019091C101A0E0C9
:103B4000B0E0281739074A075B0730F481E080931B
:103B5000C7010E945E1D15C1209100013091010135
:103B6000C901880F991F820F931F0E94CC20809358
:103B7000C3019093C40140910001509101019A0149
:103B8000220F331F240F351F60E070E0A9010E944F
:103B9000F6008091BF01863009F49EC0873090F412
:103BA000833009F46CC0843030F48130F1F082301D
:103BB00009F0C4C026C0843009F470C0853009F013
:103BC000BDC07BC0893009F442C08A3038F48730E8
:103BD00009F491C0883009F0B1C027C08A3009F4D7
:103BE00099C08B3009F0AAC03EC084E190E00E94E9
:103BF0008B24192FE82EF92E0E94790386E191E09B
:103C00001FC084E190E00E948B24192FE82EF92E2A
:103C10000E9479038EE291E0F70191838083108AFC
:103C20001786118A138A128A85C082E190E00E9469
:103C30008B24192FE82EF92E0E9479038AE391E054
:103C4000F70191838083108A1786118A73C082E1FD
:103C500090E00E948B24192FE82EF92E0E94790300
:103C600086E491E0EDCF82E190E00E948B24192F51
:103C7000E82EF92E0E94790382E591E0E1CF81E1FF
:103C800090E00E948B24192FE82EF92E0E947903D0
:103C9000F701108A17868EE591E04AC081E190E035
:103CA0000E948B24192FE82EF92E0E947903F70128
:103CB000108A17868AE691E03BC081E190E00E947D
:103CC0008B24192FE82EF92E0E947903F701108A10
:103CD000178686E791E02CC081E190E00E948B245A
:103CE000192FE82EF92E0E947903F701108A178602
:103CF00082E891E01DC081E190E00E948B24192FA1
:103D0000E82EF92E0E947903F701108A17868EE8B3
:103D100091E00EC081E190E00E948B24192FE82EE3
:103D2000F92E0E947903F701108A17868AE991E03B
:103D300091838083E092C5011093C6018091C501F3
:103D40009091C601009761F06091C3017091C40128
:103D5000409100015091010120E030E00E94FD00FF
:103D60008091C2010E94A6030091100110911101DF
:103D7000C80160E00E945A03C801F80160810E94F6
:103D800041020F900F90CF91DF911F910F91FF9003
:103D9000EF900895209A289A2E98809180008F7D28
:103DA00080938000269A82EE91E040E452E46FE036
:103DB00070E00E94F32682EE91E048EE53E060E06E
:103DC00070E00E948E2483ED91E060E070E00E943C
:103DD000B920873049F083ED91E060E070E047E082
:103DE0000E94C0200E945E1D0E94281D8091C0017B
:103DF0009091C10190930101809300010E94741D74
:103E000008950F931F93DF93CF9300D000D00F92AC
:103E1000CDB7DEB78091EE018823E9F48EEE91E014
:103E20000E947C24892BB9F08091020190E02091BE
:103E3000000130910101AC01429FC001439F900DF0
:103E4000529F900D11249093ED018093EC018EEE22
:103E500091E00E94862482EE91E00E94AC24892B9E
:103E600009F465C182EE91E00E94E5248093CF01C0
:103E70001092CE011092CD0182EE91E06DEC71E0D6
:103E800042E050E00E9414258091C7018823E1F0B0
:103E900083E0898382EE91E0BE016F5F7F4F41E056
:103EA00050E00E94BE2582EE91E00E94AA2564E6C1
:103EB00070E080E090E00E94F2212E9A80918000D4
:103EC0008F7D80938000FFCF8091CF01823009F0F9
:103ED0005BC01092CC011092CB011092CA012091CC
:103EE000CD013091CE018091EC019091ED01281728
:103EF0003907A9F527C06091C3017091C401620F11
:103F0000731F421B530B82EE91E00E9414259C010B
:103F10009093C9018093C801009741F48091CA0130
:103F20008F5F8093CA01853618F019C01092CA01BC
:103F30008091CB019091CC01820F931F9093CC0183
:103F40008093CB012091CB013091CC014091EC01C9
:103F50005091ED01CA0101972817390760F22091AD
:103F6000CB013091CC018091EC019091ED012817AB
:103F7000390709F0CDC0E0911001F0911101CF0196
:103F800060810E944102C2C0843039F483ED91E027
:103F900060E170E00E94B920BCC08530E1F48091FE
:103FA000CD019091CE018E010F5F1F4F019711F04F
:103FB00081E00CC082EE91E00E94E524482F83ED61
:103FC00091E060E170E00E94C0208FEF898382EE73
:103FD00091E0B801A4C0813009F078C08091CD0192
:103FE0009091CE01049709F06EC082EE91E0BE017F
:103FF0006E5F7F4F44E050E00E9414252091CD0178
:104000003091CE018217930709F05DC08A8181301B
:1040100020F08C3020F08F3F11F012E009C08B812E
:104020009C8163E070E00E9467277C836B831FEFB5
:104030008D818150883108F012E08A81823011F43C
:1040400081E08D831F3FA1F5CE0102966FEB71E0F9
:1040500044E050E00E94E900009751F18A819B8181
:10406000AC81BD818093BF019093C001A093C10139
:10407000B093C2010E94431D8AE2898382EE91E0DF
:10408000BE016F5F7F4F41E050E00E94BE2582EE8F
:1040900091E00E94AA2564E670E080E090E00E9432
:1040A000F2212E9A809180008F7D80938000FFCF37
:1040B000E0911001F09111018FEF8083CF0161E059
:1040C0000E942E0101C011E0198324C0833059F5EC
:1040D0008091CD019091CE010197D1F48FEF89832A
:1040E00082EE91E0BE016F5F7F4F41E050E00E94A1
:1040F00014252091CD013091CE018217930741F410
:10410000E0911001F0911101898180838FEF01C04E
:1041100081E0898382EE91E0BE016F5F7F4F41E0D5
:1041200050E00E94BE2582EE91E00E94AA250F90E9
:104130000F900F900F900F90CF91DF911F910F91E3
:1041400008950E94011F809110019091110140E09B
:1041500050E060E070E00E94F9020895DC0140FF49
:1041600003C001C06D936D934250E0F75040D0F70B
:104170000895F999FECF72BD61BDF89A80B5089592
:10418000F999FECF1FBA72BD61BD40BD0FB6F8945C
:10419000FA9AF99A0FBE08950F931F93CF93DF9366
:1041A000BC018230910510F462E070E0E091F6010C
:1041B000F091F701A0E0B0E040E050E024C0808141
:1041C000918186179707D0F08617970771F482813F
:1041D0009381109729F013969C938E9312972CC07D
:1041E0009093F7018093F60127C04115510519F00E
:1041F0008417950718F4EF018D01AC01DF0182816E
:1042000093819C01F9013097D1F641155105F9F0E0
:10421000CA01861B970B8430910580F48A819B81AB
:104220000115110521F0F8019383828304C0909356
:10423000F7018093F601FE01329645C0FE01E80FBA
:10424000F91F619371930297998388833CC0809191
:10425000D4019091D501892B41F480910501909171
:1042600006019093D5018093D401409107015091AC
:1042700008014115510541F44DB75EB78091030126
:1042800090910401481B590B2091D4013091D50124
:1042900024173507B0F4CA01821B930B86179707C2
:1042A00080F0AB014E5F5F4F8417950750F0420FCF
:1042B000531F5093D5014093D401F9016193719339
:1042C00002C0E0E0F0E0CF01DF91CF911F910F91AC
:1042D00008951DBA109268001CBC10BE1FBA10923F
:1042E0007A0010926E0010926F001092710010927E
:1042F00072001092C900ECEBF0E0108214B817B80D
:104300001AB81DB810BA108215B818B81BB81EB864
:1043100011BA0895F89484B7877F84BF80916000B4
:104320008061809360001092600080E29EE40197BB
:10433000F1F781E08093E00080E28093D80080E68E
:104340009AEE0197F1F70E9469210C94003FFFCF8C
:10435000F8940E94692180E69AEE0197F1F70C9497
:104360000000FFCF8F938FB78F938091DE018D5F19
:104370008D37D0F48093DE018091DA018F5F8093D6
:10438000DA01D8F08091DB018F4F8093DB01A8F038
:104390008091DC018F4F8093DC0178F08091DD010A
:1043A0008F4F8093DD0109C08D578093DE0180918E
:1043B000DA018E5F8093DA0128F78091D6018C5F55
:1043C0008093D60158F08091D7018F4F8093D70109
:1043D00028F08091D8018F4F8093D8018F918FBFA3
:1043E0008F9118959B01AC010E940B22FB010DC01F
:1043F0000E940B226E1B7F0B685E7340C8F3215036
:10440000304040405040E851FC4F211531054105F6
:10441000510571F708950FB6F89466B515B270910D
:10442000D6018091D7019091D8010FBE10FE05C032
:104430006F3F19F07C5F8F4F9F4F11240024660F50
:10444000001C660F001C70290895F894E1E6F0E066
:1044500020E82083108283E084BD85BDEEE6F0E095
:1044600080818160808391E09093800082E08093DE
:10447000810090939000809391008093C00084E02D
:104480008093C1009093C2009093C3001092C40027
:1044900086E880937A0020937B0010927E00109231
:1044A0007D000E945522789408958091D80087FF5E
:1044B00002C085FF1BC081E08093D70080EA809313
:1044C000D80082E189BD09B400FEFDCF80E9809368
:1044D000D8001092E0001092F8011092F9011092A9
:1044E000FA011092E1008DE08093E20008951F929E
:1044F0000F920FB60F9211242F933F934F935F9318
:104500006F937F938F939F93AF93BF93EF93FF939B
:104510001092E9008091E80083FF58C12091F100DA
:104520009091F1004091F1005091F1006091F10003
:104530007091F100A091F100B091F10082EF8093B1
:10454000E800963009F044C0ECEAF0E020E0859104
:1045500095918417950711F0359617C0859195911F
:104560008617970711F0339610C025913591449125
:10457000CD01AF3FB10519F010F08FEF90E0841737
:1045800008F4482FF9015EEF04C02F5F2630F9F6DA
:104590001DC18091E800282F30E0C901857090701E
:1045A000892BB9F322FD15C1242F413208F020E2F6
:1045B000922F04C085918093F10091509923D1F7F7
:1045C000421B5093E800442321F7203211F301C12C
:1045D000953061F48EEF8093E8008091E80080FFD1
:1045E000FCCF842F80688093E300F3C0993009F5F5
:1045F000222309F0EBC04093F8011092FA011092C7
:10460000DF018EEF8093E800E6EDF0E091E090931B
:10461000E90085918093EB00882331F085918093A8
:10462000EC0085918093ED009F5F953081F78EE1DE
:10463000C8C0983061F4203809F0C8C08091E80003
:1046400080FFFCCF8091F8018093F10097C09132F8
:10465000A9F4213A09F0BAC08091E80080FFFCCFAC
:1046600020E030E0F901E75FFE4F80818093F100A8
:104670002F5F3F4F27303105A9F780C0903209F0F6
:104680004CC0213209F0A2C08091E80082FFFCCF2B
:1046900020E030E0F901E75FFE4F8091F100808378
:1046A0002F5F3F4F27303105A9F78BEF8093E8004C
:1046B0008EEF8093E8008091090190910A01A0910A
:1046C0000B01B0910C0186389105A105B10519F4D3
:1046D0008FE08093E0018091090190910A01A091FF
:1046E0000B01B0910C0186399105A105B10509F0C6
:1046F00070C084E08093E9002FEF06C02093E800AB
:104700008091E80082FDFCCF8091EE0090E0837004
:104710009070892B99F70E94A821923251F421328E
:1047200009F054C04093FA018091E80080FFFCCF6B
:1047300025C0933241F4213209F048C08091E8004D
:1047400080FFFCCF1BC09923E9F48091E80080FF33
:10475000FCCF223811F080E00DC06093E900809119
:10476000EB0090E025E0969587952A95E1F781701A
:104770001092E9008093F1001092F1008EEF809387
:10478000E80027C0913011F0933001F52230F1F4A8
:10479000452BE1F4262F2F77822F81508630B0F4FD
:1047A0008EEF8093E8002093E900933079F089E15F
:1047B0008093EB0081E090E002C0880F991F2A955A
:1047C000E2F78093EA001092EA0003C081E280934E
:1047D000EB00FF91EF91BF91AF919F918F917F91EE
:1047E0006F915F914F913F912F910F900FBE0F905E
:1047F0001F9018951F920F920FB60F9211242F93AE
:104800003F934F935F936F937F938F939F93AF9358
:10481000BF93EF93FF938091E1001092E100982FF6
:1048200083FF11C01092E90081E08093EB001092A9
:10483000EC0082E28093ED0088E08093F00010921B
:10484000F8011092FA0192FF1EC08091F8018823AE
:10485000D1F08091DF01882359F081508093DF01EE
:10486000882331F484E08093E9008AE38093E800B0
:104870008091E001882339F081508093E001882302
:1048800011F40E948A2190FF0CC080E18093E20025
:104890001092F80181E08093F90180EA8093D800BA
:1048A00019BC8091F901882379F094FF0DC082E151
:1048B00089BD09B400FEFDCF80E98093D8008DE06A
:1048C0008093E2001092F901FF91EF91BF91AF91B7
:1048D0009F918F917F916F915F914F913F912F9118
:1048E0000F900FBE0F901F9018950E9425220E94D6
:1048F000CA1E0E94A120FDCFFC0120E030E0808193
:10490000882311F421E030E0C9010895FC0181E021
:104910008083089508950E94CC200895FC0143836C
:104920005483658376830895DF93CF930F92CDB739
:10493000DEB7FC016983A081B18112962D913C9173
:104940001397BE016F5F7F4F41E050E0F901099579
:104950000F90CF91DF910895FC019FB7F89480915B
:10496000F801882311F420E010C083E08093E9006F
:104970002091F200222349F48091E80082FF05C0D3
:1049800085FD03C08BE68093E8009FBF80859185FD
:1049900097FD03C02F3F09F02F5F822F90E008950D
:1049A000CF93DF93EC018885998597FF09C0E88153
:1049B000F9810680F781E02DCE01099599878887D6
:1049C00088859985DF91CF910895FC0120853185F7
:1049D00037FD05C08FEF9FEF9187808722C02FB7EB
:1049E000F8948091F801882369F083E08093E900CE
:1049F0009BE68091E80085FD09C082FF03C090938B
:104A0000E800F7CF2FBF2FEF3FEF0CC09091F100E0
:104A10008091E80085FD03C08BE68093E8002FBFFE
:104A2000292F30E0C90108958F929F92AF92BF92D3
:104A3000CF92DF92EF92FF920F931F93CF93DF936A
:104A40007C018B01BA010FB6F894A090DA01B09006
:104A5000DB01C090DC01D090DD010FBE4115510596
:104A600019F4C0E0D0E068C0FC018085918597FF13
:104A700003C0C0E0D0E011C0F80180838FEF9FEF4A
:104A8000F701918780876150704019F4C1E0D0E050
:104A900053C00F5F1F4FC1E0D0E093E0892E8BE63B
:104AA000982E4FB7F8948091F801882331F08092C6
:104AB000E9008091E80082FD02C04FBF3AC020911A
:104AC000F200822F90E06817790708F4262FF8018A
:104AD00003C08091F10081938E2F801B8217C8F351
:104AE00030E0020F131F8091E80085FD02C0909214
:104AF000E8004FBFC20FD31F621B730BE9F00FB664
:104B0000F8948091DA019091DB01A091DC01B091E1
:104B1000DD010FBE8A199B09AC09BD09F70123818C
:104B200034814581568182179307A407B50708F49D
:104B3000B8CF81E0F7018783CE01DF91CF911F913C
:104B40000F91FF90EF90DF90CF90BF90AF909F902C
:104B50008F9008959FB7F8948091F801882361F0B1
:104B60008091DF01882341F084E08093E9008AE3AB
:104B70008093E8001092DF019FBF08956F927F92AB
:104B80008F929F92AF92BF92CF92DF92EF92FF925D
:104B90000F931F93CF93DF933C018B018091F8011A
:104BA000882329F481E0D30112968C9311C03FB77A
:104BB000F89484E08093E9008091E101882369F012
:104BC0008091E80085FD07C03FBF81E0E3018A8353
:104BD00088249924DAC01092E10188249924F4E011
:104BE000AF2EE0E4BE2E71EFE72EF12C6AE3C62E65
:104BF00023E0D22EC5C09091E400915F8091E8003F
:104C000085FD19C03FBF8091E400891731F481E030
:104C10008093E101F3018283B8C08091F801882379
:104C200029F481E0D30112968C93AFC03FB7F8947A
:104C3000A092E900E3CF8091F2002B2D281B822F58
:104C400090E04817590708F4242F622F70E0E8011C
:104C5000D701E0E4E21BE03428F4EE0FFF27ED5C1F
:104C6000F94D099480C089918C9389918C93899195
:104C70008C9389918C9389918C9389918C93899150
:104C80008C9389918C9389918C9389918C93899140
:104C90008C9389918C9389918C9389918C93899130
:104CA0008C9389918C9389918C9389918C93899120
:104CB0008C9389918C9389918C9389918C93899110
:104CC0008C9389918C9389918C9389918C93899100
:104CD0008C9389918C9389918C9389918C938991F0
:104CE0008C9389918C9389918C9389918C938991E0
:104CF0008C9389918C9389918C9389918C938991D0
:104D00008C9389918C9389918C9389918C938991BF
:104D10008C9389918C9389918C9389918C938991AF
:104D20008C9389918C9389918C9389918C9389919F
:104D30008C9389918C9389918C9389918C9389918F
:104D40008C9389918C9389918C9389918C9389917F
:104D50008C9389918C9389918C9389918C9389916F
:104D60008C9389918C938E018091E80085FD02C01F
:104D7000C092E800461B570B860E971ED092DF01AB
:104D80004115510509F037CF3FBFC401DF91CF91E5
:104D90001F910F91FF90EF90DF90CF90BF90AF9059
:104DA0009F908F907F906F900895E2EEF1E08AE0FF
:104DB000DF011D928A95E9F71092E40188EE93E0F5
:104DC000A0E0B0E08093E5019093E601A093E701B5
:104DD000B093E8011092E90186EA91E09093E30133
:104DE0008093E20108952FEF3FEFFC013187208788
:104DF0000E9455220FB6F8948091DA019091DB0160
:104E0000A091DC01B091DD010FBEAC018091F801F1
:104E1000882339F068EC70E080E090E00E94F22195
:104E200008958091F901882309F10FB6F8948091D3
:104E3000DA019091DB01A091DC01B091DD010FBEA0
:104E40009C0110C00FB6F8948091DA019091DB01BB
:104E5000A091DC01B091DD010FBE821B930B8B3F53
:104E60009105A8F48091F901882361F70FB6F894B1
:104E70008091DA019091DB01A091DC01B091DD011C
:104E80000FBE841B950B855C994008F4BFCF089535
:104E9000629FD001739FF001829FE00DF11D649F1E
:104EA000E00DF11D929FF00D839FF00D749FF00DAA
:104EB000659FF00D9927729FB00DE11DF91F639F4B
:104EC000B00DE11DF91FBD01CF0111240895AA1BEA
:104ED000BB1B51E107C0AA1FBB1FA617B70710F0E5
:104EE000A61BB70B881F991F5A95A9F78095909517
:104EF000BC01CD01089597FB092E07260AD077FD46
:104F000004D0E5DF06D000201AF4709561957F4F3C
:104F10000895F6F7909581959F4F0895A1E21A2E76
:104F2000AA1BBB1BFD010DC0AA1FBB1FEE1FFF1F4D
:104F3000A217B307E407F50720F0A21BB30BE40B9D
:104F4000F50B661F771F881F991F1A9469F76095E4
:104F50007095809590959B01AC01BD01CF0108959E
:104F600097FB092E05260ED057FD04D0D7DF0AD0B7
:104F7000001C38F450954095309521953F4F4F4F88
:104F80005F4F0895F6F790958095709561957F4FE6
:104F90008F4F9F4F0895EE0FFF1F0590F491E02D66
:104FA0000994F894FFCF0100038000FB010000008A
:104FB000E10000000008B20100000000601828189D
:104FC0004005E204000000008A248A248A248A24FE
:104FD00000000000E01C971C2A046204000000008E
:104FE000D21897184C05B50500000000D4190C190B
:104FF0005005060400000000991BA91A5405E2039D
:1050000000000000820A760ADE03570A0000000052
:105010001C181018E003F11700000000820A760A3D
:10502000DE03570A0000000063145714DC03381431
:10503000000000008C108010DA03611000000000F6
:10504000270D1B0DD803FC0C000000009424BE2586
:10505000AC24E524D024AA25FFFFFFFFFFFFFFFFBC
:10506000FFFFFFFFFFFFFFFFFFFFFFFFFFFFFFFF50
:10507000FFFFFFFFFFFFFFFFFFFFFFFFFFFFFFFF40
:10508000FFFFFFFFFFFFFFFFFFFFFFFFFFFFFFFF30
:10509000FFFFFFFFFFFFFFFFFFFFFFFFFFFFFFFF20
:00000001FF
